:020000040800F2
:10000000A0E500209D010008318A0008F968000879
:100010002F8A00086D0D00083D9A000800000000BE
:10002000000000000000000000000000DF92000857
:10003000A115000800000000A58C00085D940008D0
:10004000B7010008B7010008B7010008B7010008B0
:10005000B7010008B7010008B7010008B7010008A0
:10006000B7010008B7010008B7010008B701000890
:10007000B7010008B7010008B7010008B701000880
:10008000B7010008B7010008B7010008B701000870
:10009000B7010008B7010008B7010008D91500082A
:1000A000B7010008B7010008B7010008B701000850
:1000B000B7010008B70100088D960008B7010008D5
:1000C000B7010008B7010008B7010008B701000830
:1000D000B70100083D980008B7010008A59800087E
:1000E000B7010008B7010008B7010008B701000810
:1000F000B7010008B7010008B7010008B701000800
:10010000B7010008B7010008B7010008B7010008EF
:10011000B7010008B7010008B7010008B7010008DF
:10012000B7010008B7010008B7010008B7010008CF
:10013000B7010008B7010008B7010008B7010008BF
:10014000B7010008B7010008B7010008B7010008AF
:10015000B7010008B7010008B7010008B70100089F
:10016000B7010008B7010008B7010008B70100088F
:10017000B7010008B7010008B7010008B70100087F
:10018000B7010008B7010008DFF80CD000F042FB0F
:1001900000480047C5460108A0E500200648804702
:1001A00006480047FEE7FEE7FEE7FEE7FEE7FEE75C
:1001B000FEE7FEE7FEE7FEE7B194000889010008CC
:1001C00010B5431A934209D28318881803E010F837
:1001D000011D03F8011D521EF9D210BD40EA0103B2
:1001E0009B0703D009E008C9121F08C0042AFAD2ED
:1001F00003E011F8013B00F8013B521EF9D210BD9B
:10020000D2B201E000F8012B491EFBD27047002258
:10021000F6E710B513460A4604461946FFF7F0FF05
:10022000204610BD421C10F8011B0029FBD1801A8A
:100230007047034611F8012B00F8012B002AF9D171
:10024000184670472DE9FE4F804681EA0300C00F33
:100250000C46009021F0004123F00045B8EB02006D
:10026000A94105D24046214690461C460B4602460F
:1002700023F00040104347D0270DC7F30A00C3F313
:100280000A510290401A019040286BDAC3F3130020
:1002900040F4801B0098924620B10023D2EB030A61
:1002A00063EB0B0B01985946C0F14002504600F039
:1002B00084F906460D4650465946019A00F09CF9CD
:1002C00010EB08006141002487EA115284EAE773C9
:1002D0001A4340D0009A62B3019A012A4FEA0752AA
:1002E00015DC001B61EB02014FF0004202EA0752ED
:1002F000CDE90042001C41F5801132462B4600F04A
:100300009CF903B0BDE8F08F40462146F9E7001B99
:1003100061EB0201001C41F5801300185B412018BD
:10032000A2F5001747EB030140EAD570B6196D41FD
:1003300011E06D084FEA360645EAC0754FEA0752EC
:10034000001B61EB0201001C41F5801149084FEAD6
:1003500030000019514132462B4603B0BDE8F04F42
:1003600000F05CB90098012240000023D0EB0202AB
:1003700063EBE073009821464FEAE074B8EB0000AD
:1003800061EB0401E9E783F000435BE781F00041A2
:1003900058E72DE9FE4F81EA030404F0004421F000
:1003A000004100944FF0000B23F0004350EA010499
:1003B0005ED052EA03045BD0C3F30A54C1F30A557A
:1003C0002C44A4F2F3340194A0FB0254C1F31301B2
:1003D00041F48011C3F3130343F4801301FB02447F
:1003E00000FB034E840A970A44EA815447EA835784
:1003F000A4FB076802958D0A05FB07854FEA932C3D
:1004000004FB0C542705029D4FEA065847EA1637AD
:10041000B5EB08056EEB070C870E920E47EA8117C5
:1004200042EA8312A7FB0201B6EB0B0164EB000466
:100430002B0D43EA0C335E1844EB1C50DA46514650
:10044000E7FB0201C5F313044FEA0B3343EA1453ED
:100450004FEA0432019C43EA0603A4F10C0402941F
:10046000009CCDE900B400F0E8F803B0BDE8F08FDF
:1004700000200146F9E70EB5C10F80EAE07008449C
:10048000CA07002140F233438DE80E000A460B46AE
:1004900000F0D3F803B000BD70B5C1F30A5201F00B
:1004A00000450024C1F3130140F2FF3341F48011F1
:1004B0009A4201DA002070BD40F233439A42A2F220
:1004C000334203DC524200F087F800E090402C43B6
:1004D000F1D0404270BD00F0004230F000400AD040
:1004E000C10D01F56071C0F3160042EA0151C20866
:1004F00040071143704700200146704730B5041E85
:1005000071F1000404DB4FF00044404264EB010150
:10051000141E73F1000405DB1C464FF000435242E9
:1005200063EB04038B4208BF824230BD30B50B46FB
:10053000014600202022012409E021FA02F59D4213
:1005400005D303FA02F5491B04FA02F52844151EE7
:10055000A2F10102F1DC30BD2DE9F05F054600207B
:1005600092469B4688460646814640241BE0284624
:1005700041464746224600F02FF853465A46C01AD5
:10058000914110D311461846224600F016F82D1A54
:1005900067EB01084F4622460120002100F00DF8CC
:1005A00017EB00094E41201EA4F10104DFDC484690
:1005B00031462A464346BDE8F09F202A04DB203A14
:1005C00000FA02F1002070479140C2F1200320FAA6
:1005D00003F3194390407047202A04DB203A21FAA4
:1005E00002F00021704721FA02F3D040C2F120024C
:1005F0009140084319467047202A06DBCB17203A62
:1006000041FA02F043EAE07306E041FA02F3D04017
:10061000C2F12002914008431946704710B5141EDC
:1006200073F1000408DA401C41F1000192185B41AB
:100630001A4301D120F0010010BD2DE9F04D924682
:100640009B4611B1B1FA81F202E0B0FA80F2203299
:100650009046FFF7B2FF04460F4640EA0A0041EA1F
:100660000B0153465A46084313D0114653EA010082
:1006700019D0C8F140025046FFF7AEFF05460E46BE
:10068000504659464246FFF798FF084305D00120DF
:1006900004E020463946BDE8F08D0020054346EAD7
:1006A000E0762C4337430A986305E40AA0EB080080
:1006B0000022FD0A44EA47540A3002D500200146D0
:1006C000E9E7010510196941DDE9084500196941AB
:1006D000BDE8F04DA2E72DE9F04D81EA030404F0F6
:1006E000004B21F0004514464FF0000A23F0004172
:1006F00050EA050220D054EA01021DD0C5F30A5782
:100700000246C5F31303C1F31300C1F30A5640F4C4
:10071000801543F48013A7EB0608101BD64608F299
:10072000FD3873EB050002D308F1010801E09218CF
:100730005B41B8F1000F03DA00200146BDE8F08DFF
:1007400000204FF48011064684460EE0171B73EB21
:10075000050705D3121B63EB050306434CEA010CA6
:1007600049084FEA300092185B4150EA0107EDD189
:1007700052EA030012D082EA040083EA050108432A
:1007800005D0101BAB4106D20122002306E0002257
:100790004FF0004302E06FF0010253101AEB060025
:1007A0004CEB085110EB0A0041EB0B01BDE8F04D9A
:1007B000FFF734BFC1F30A52C1F3130140F2FF3314
:1007C00041F480119A4202DA00200146704740F25B
:1007D00033439A42A2F2334202DC5242FFF7FCBE9C
:1007E000FFF7EBBE30B5041E71F1000404DB4FF0DF
:1007F0000044404264EB0101141E73F1000405DB68
:100800001C464FF00043524263EB0403994208BF79
:10081000904230BD064C074D06E0E06840F0010311
:1008200094E8070098471034AC42F6D3FFF7B0FCC9
:10083000C4F30F08E4F30F080EB540F23341029100
:100840000021CDE900110A460B46FFF7F6FE03B082
:1008500000BD70B58C1810F8015B15F0070301D1CD
:1008600010F8013B2A1106D110F8012B03E010F813
:10087000016B01F8016B5B1EF9D12B0705D4002336
:10088000521E0DD401F8013BFAE710F8013BCB1AD8
:10089000921C03E013F8015B01F8015B521EF9D5CD
:1008A000A142D8D3002070BD002800DC4042704730
:1008B00038B5456804460146284609F0D4F80028B2
:1008C0002BD02068304A11280DD006DC0B2825D00B
:1008D0000E2833D00F2852D112E0282849D0B0F585
:1008E000107F4CD108E09268002A16D02146284695
:1008F00001B0BDE830401047214628465268F7E76E
:10090000284602F04BFF0090406E0468684602F0F3
:100910009DFF002C01D02846A04738BD284602F094
:100920003DFF0090683002F09DFE009803216C307E
:1009300002F0A0FE684602F089FF20E0E168486806
:1009400009680D2902D0202913D105E0002810DD07
:1009500028460FF0C8F806E0002804DD2846BDE868
:1009600038400FF0C0B82846BDE8384002210FF0EB
:10097000D0B8E06818B90021284600F0ACF920464C
:10098000BDE8384009F000BB30030020F0B5044654
:1009900085B08069B4F90850668A0027CDE9026500
:1009A000CDE900170490B4F90C00B4F91060C11837
:1009B000B4F90A00B4F90E50104433462A4600F048
:1009C00007F80546616800F08FF905B02846F0BDCC
:1009D000F0B585B00C46DDE90D51DFF854C04C315F
:1009E000DDE90A67CDE902C12146CDE9006709F0DA
:1009F0001DFA040018D002F0D1FE102229460490FE
:100A000009F068F9049830220A493430FFF7D8FB1E
:100A1000084D04990C3D2868486604A802F016FFAA
:100A2000286841682046884705B02046F0BD000090
:100A3000B10800083C030020F0B5044680688B49EB
:100A400089B051F82050606800287DD0052804D076
:100A500006287AD0122879D1AEE0E86900284FD074
:100A600095E80E008DE80F0004F110010FC905F0A4
:100A700071FA002655F8260004F0E0FAA169E86949
:100A80000A1A216901446069304403F025FBA16919
:100A9000E8690A1A21690144E069801B03F01CFB24
:100AA000E169E8690A1A616901442069304403F088
:100AB000B3FBE169E8690A1A61690144A069801B16
:100AC00003F0AAFB761C022ED4DBA86804F0B6FA69
:100AD000E069E9696669431A206942183144801C5B
:100AE000521E03F001FCE169E869A2690B1A616911
:100AF0000144101A401C921E03F0F6FBEE6913E04D
:100B00005FF0000655F8260004F098FAE069831BB0
:100B1000A069821B606981192069304403F03EFBA3
:100B2000761C022EEEDB0226D5E90301CDE9000199
:100B30006169E06908444310A069891C821B20692F
:100B4000304403F095FA02E089E012E08AE0D5E94A
:100B50000501CDE90001E36960690121184401EB59
:100B60006001A0699B1E821B2069304403F080FA5B
:100B700078E0206802F012FE049020680AF0E2FC9F
:100B800040B1A06808B1002008E00498006F28B1C7
:100B9000012003E00498406F00B10220049901EBAA
:100BA0008000C56E04A802F051FE00231A462846B4
:100BB000216803F0D7F855E0206802F0EFFD0490BB
:100BC000866EEEB3B0F95C70A168D1B3032942D050
:100BD0005FF0000100EB8101406D0C6C04F038FA0D
:100BE000204604F02BFA05A803F01EFCBDF81410F3
:100BF000A88B0144ADF81410BDF81810081AADF810
:100C00001800BDF81600801CADF81600BDF81A00DB
:100C1000801EADF81A000498B0F96020B0F95E109B
:100C200005A804F023F904A802F010FE022004F045
:100C300051FA304602F0B2FD3A4605A9079001E0AC
:100C40000BE006E003F0B9F80DF11C0002F0FEFD28
:100C500008E00121BEE70221BCE704A8F6E720680E
:100C60000AF0E4F809B00020F0BD0000E8E20F0847
:100C700070B516460C46054619463046049A03F0F0
:100C800055F8024621462846BDE8704000F054B8A9
:100C9000F8B515460C4606000DD002F07FFD009019
:100CA000032C02D200EB84004563684602F0CEFDBF
:100CB000304609F03CFEF8BD38B50D46040009D0B9
:100CC00002F06CFD00904565684602F0BFFD2046CD
:100CD00009F02DFE38BD4FF480720029114601D075
:100CE00008F051BF08F0ABBE2DE9FF410E460500EC
:100CF0004FF001041CD002F051FD0190876E01A855
:100D0000009702F0A3FD3146684605F0E3FB78B199
:100D100000980024B84208D0284602F03FFD019018
:100D20000099816601A802F091FD284609F0FFFDB7
:100D300004B02046BDE8F081F8B515460C46060023
:100D400013D002F02BFD0090032C0BD200EB84009B
:100D50006C3002F087FC009800EB8400C5663046DA
:100D600009F0E5FD684602F071FDF8BDFEE7000000
:100D70001CB509F01DFA0346002000900190034ABB
:100D80000621034802F0D4FE1CBD0000B92801086A
:100D9000F85D01082DE9FC41002830D0112916D05A
:100DA000132910D005460C4602F0F8FC009000F024
:100DB000DFFB0646684602F049FD204610F04AFB7C
:100DC000074600241EE0BDE8FC4100F0E3BABDE8A0
:100DD000FC4100F071B92146284600F0CCFB01909F
:100DE00078B1007810F036FB00F0FF0801A802F09F
:100DF0002DFDB84505D12146284600F053FBBDE83E
:100E0000FC81641CB442E6DBF9E7F8B50C4605004A
:100E100013D0002C11D002F0C1FC0090C66B6846C4
:100E200002F014FD2046FFF7FDF9421C2146304632
:100E300002F030FD284609F07AFDF8BD2DE9FF41AA
:100E400045680446284602F0A9FC0190D0F8886065
:100E500001A802F0FBFC0EB1012700E000272146AB
:100E6000284608F000FE002856D02068112844D0FB
:100E700006DC0B2863D00E2878D00F282BD14FE04A
:100E8000212805D026281AD0B0F5107F23D139E0CB
:100E9000E068416800291EDD00680D281BD130463E
:100EA00007F0EBF9002806DB304607F0E6F90146CB
:100EB000284600F0F7FA284600F07EF875E0E06872
:100EC000012809D00A2802D00B2871D111E00A218B
:100ED000284609F0C6FD6BE0304607F0CEF9002841
:100EE00066DB304607F0C9F90146284600F0DAFA19
:100EF0005BE0284600F060F85AE0FFB9E068007A4D
:100F000098BB55E0E06848B1007A08B1012100E0E3
:100F10000221284609F0A5FDBDE8FF810321F8E77D
:100F20002E46284602F03AFC0290D0F8840005686C
:100F300002A802F08BFC0DB13046A84738E02846E5
:100F400002F02CFC0090C06B02F0E4FC0098D0F89A
:100F5000880009F04DF80098D0F8940002F05AFB90
:100F6000684602F073FC23E000E016E0E0684168A8
:100F700000291DDD016820290FD006DC092910D0C9
:100F80000A2915D01B2904D112E0212910D02229C9
:100F90000ED02846FFF7FEFEBEE7284600F0EEF82A
:100FA00006E009F035F9B04202D1284609F0C8FE42
:100FB000204608F0E9FFAFE738B5040011D002F091
:100FC000EDFB0090D0F8880040B109F011F80099CD
:100FD0000020C1F88800204609F0A9FC684602F00C
:100FE00035FC38BDF0B585B0B0F90850468A846943
:100FF0000296CDE903540027CDE90017B0F90C1093
:10100000B0F91050B0F90E40B0F90A00194410447C
:101010002B46224600F002F805B0F0BD2DE9FF4155
:101020000C461D46DDE90D71DDE90B36DFF880E089
:10103000DDF828C06C31CDE900C3CDE902E14FF005
:10104000FF33214608F0F2FE04002DD002F0A6FB8B
:1010500010223946009008F03DFE009838221549CC
:1010600080F88C604C30FFF7ABF8124E0098361FBA
:101070003168C0F88410002180F89010C5862046A1
:1010800000F055FA684602F0E1FB02F040FC05462C
:10109000204602F083FB0090C563684602F0D6FB51
:1010A000306841682046884704B02046BDE8F0819A
:1010B0003D0E00087003002010B5044600F05DF9F5
:1010C000010000D0411E2046BDE8104000F0EAB902
:1010D000F8B50546006802F061FB0090448ED0F838
:1010E0008860684602F0B2FB06B1012604F00104F4
:1010F00028680AF027FA0EB1002006E00CB10120A2
:1011000003E008B1022000E003201B4951F8201041
:10111000686858B302280CD0052802D0122828D1BC
:1011200003E028460BF0EEF923E028460CF012FE0F
:101130001FE06A69E8694FF0FF33801AA0F10802E6
:1011400003EB6204421CAB69001B4510A3EB620673
:10115000C86903F073FF06E03219311B284602F01C
:10116000BBFF641E6D1C002CF6DA02E0286809F053
:101170005DFE0020F8BD0000F8E20F082DE9F14FF8
:101180009EB01E9800287CD002F008FB0B901E98A1
:1011900009F019F903900B98B0F9367090F8901097
:1011A0001891C16B0A9190F88C90B0F93410159198
:1011B00000F0DEF982460B9804ACB0F88E10149162
:1011C000B0F982101391C16C1291D0E90012CDE9EF
:1011D0000C12D0F894B0002100EB8102126D44F89B
:1011E0002120491C0329F7D3002107AD00EB810220
:1011F000D26D45F82120491C0329F7D300210EAEFA
:1012000000EB8102126F46F82120491C0329F7D315
:101210000BA802F01BFB1E9809F087F802F0BEFA3B
:101220001190D0F8008011A802F010FB4FEA28407E
:1012300042420FFA88F041420CA803F017FE5FEA21
:10124000897003D5BDF83200C01B01E0BDF836003F
:10125000ADF832001E9809F068F8014603980222A2
:10126000CDE900070292BDF93230BDF930200020EF
:1012700006F097FF80465FEAC97009D0404618998A
:1012800000E077E007F010FA0121404607F054F93A
:10129000002708E039460A9802F070FB01464046F4
:1012A00006F03DFE7F1C5745F4D30027394654F81D
:1012B0002720404607F065F97F1C032FF6D3002452
:1012C000214655F82420404607F072FA641C032C8E
:1012D000F6D30024214656F82420404607F0C9F9E9
:1012E000641C032CF6D3BBF100001FD002F056FAA9
:1012F000169030F8025B00240646012711E000BF7B
:1013000006EBD40004F00701007807FA01F1084267
:1013100001D0012200E000222146404607F059F9A1
:10132000641CAC42ECDB16A802F090FA404614991B
:1013300007F07DF94046129907F037F940461399B6
:1013400007F026FA404609F0FBFC40461E9907F0DC
:1013500080F94046159907F0BFF901211E9809F060
:1013600080FB1E9802F01AFA0B90C0F888800BA838
:1013700002F06CFA1FB0BDE8F08F38B5002438B128
:1013800002F00CFA0090B0F93440684602F05EFAC0
:10139000204638BD10B50446FFF7EFFF411C20463C
:1013A000BDE8104000F07EB8F8B50E46002819D010
:1013B00002F0F4F9009090F88C10D0F8885021F0E9
:1013C00001040EB144F00104A1420CD080F88C401D
:1013D000684602F03BFA002D04D004F001012846D3
:1013E00007F0AAF8F8BD684602F030FAF8BDF8B583
:1013F0000C46060024D002F0D1F90090D0F88850B5
:10140000C06C03F056F807460098C464684602F0C2
:101410001DFA304600F08BF8304609F088FA002DAE
:101420000ED0204603F045F8B84205D03046FFF70D
:10143000C3FD3046FFF7A2FE2146284607F0B5F867
:10144000F8BD38B50C4600280ED002F0A7F9009080
:1014500050F8885FC480684602F0F8F9002D03D088
:101460002146284607F0E3F838BD38B50C46002879
:1014700013D002F093F9009090F89010D0F88850B3
:101480008C420BD080F89040684602F0DFF9002DC6
:1014900003D02146284607F007F938BD684602F018
:1014A000D5F938BD38B50C46050019D002F076F9EB
:1014B000009000F05DF800B1401E844200DD04465B
:1014C0000098B0F93410A1420BD08486684602F02F
:1014D000BDF9284609F02BFA0421284609F0C1FA83
:1014E00038BD684602F0B2F938BD38B50C46050083
:1014F0000AD002F053F90090A0F88240684602F04A
:10150000A5F9284609F013FA38BD38B50C46050090
:101510000CD002F043F900900487684602F096F977
:10152000284600F004F8284609F001FA38BDF8B55D
:10153000044602F033F901460090B0F9380010B9C2
:10154000C86C02F0B6FF0099CA6AB1F9803012681F
:1015500000EB43001618084609F072FE054668467F
:1015600002F074F932462946204609F098FCF8BD8D
:10157000C06B02F0F7B938B50D46002402F00EF941
:101580000090C06B294602F0F9F90546684602F062
:101590005DF91DB1284602F001F90446204638BD28
:1015A000704701B502E00098401E009000980028A6
:1015B000F9D108BD01B502E00098401E00900098E6
:1015C0000028F9D108BD01B502E00098401E009046
:1015D00000980028F9D108BD10B54FF4807420465A
:1015E00000F010F8002806D001F0AAFC2046BDE863
:1015F000104000F001B810BD0149086070470000BC
:10160000143C014001460020024A12680A4200D000
:1016100001207047143C014030B51B4A83790168B2
:10162000002B2AD013688B431360111D0B680468CC
:10163000A3430B60017911440B68046823430B60DA
:10164000114C08342168036899432160231D1968EF
:101650000568A94319604179102905D011440A6829
:10166000006802430A6030BD2168026811432160AE
:10167000196800680143196030BD007910440268A0
:101680008A43026030BD0000003C01402DE9F04774
:10169000044640688EB00027804602F07FF8009034
:1016A000B0F87CA0D0F86890D0F88060D0F888506E
:1016B000C06D00B10768684602F0C8F805E06968C7
:1016C00020468847002843D12D68002DF7D1206897
:1016D000172853D00CDC0F283DD004DC0B2877D022
:1016E0000D2825D18BE0112810D0142820D13BE003
:1016F000262846D004DC1E2851D0202818D18AE0A4
:101700002A2816D0B0F5107F12D128E04046E568AF
:1017100002F044F80290697A39B9297A012904D192
:1017200030F87C1F41F48071018002A802F08EF82D
:1017300075E0404602F032F80090E16811B1C0F85F
:10174000841002E0D0F88400E060684602F07EF881
:101750000EB0BDE8F087D7B34046B8475FE02146FA
:1017600040460EF04DFBF3E705A9404600F06FFB45
:10177000E0680699016007994160E9E7C4F80C90B8
:10178000E6E7E0680228E3D1CDF83080E0680D900C
:1017900027200A900AA9A0680AF0CEF8D8E7E068E6
:1017A000012804D00021404600F0ACFAD0E73046D2
:1017B00009F01BF968B1304609F0C2FA304608F06A
:1017C000EDFF98B10121304608F0DDF90EE026E08A
:1017D0002FE0484609F002FB0646404601F0DEFFD6
:1017E0000090C0F88060684602F030F80121404661
:1017F00000F088FA002EABD10020E060A8E75FEA95
:101800000A700CD4E068C06848B1007A38B140462C
:1018100009F096FA03E0214640460EF097F921467A
:10182000404608F020F9002892D0204608F0ACFB92
:101830008EE7404601F0B2FF0090703001F012FFD9
:10184000684673E7F0B587B0B0F908400DF10C0CAD
:101850000C9E876945688CE8F000448A0025CDE934
:1018600000150294B0F90C10B0F91050B0F90E4008
:10187000B0F90A00194410442B46224600F002F841
:1018800007B0F0BD2DE9F0478AB00DF14C0CDDE951
:1018900017849CE86006129F45F48055DFF8BCC0B1
:1018A0006034CDE902C4CDE9007508F0BFFA040048
:1018B0004FD001F073FF30224946049008F00AFA35
:1018C0000498282226493430FEF77AFC0498244FE5
:1018D000C0F86480A0F87C600026C0F88060C6660E
:1018E000083FC0F888607968C16504A801F0AEFFC0
:1018F00005A9204600F0ABFA1A4841F2827103961E
:101900000094CDE90110BDF91E00BDF91A10BDF912
:101910001C20431ABDF918005B1C121A521C08F057
:1019200085FA06467868416820468847204601F0D7
:1019300035FF0490866604A801F088FF42F2040097
:10194000054202D1204608F0C7FB5146204600F070
:101950000EFA0AB02046BDE8F08700008D16000898
:10196000E4050020552100082DE9F041044694B01B
:10197000006800F0B7F908B1D94D01E0D84D2C3519
:10198000606815281ED00CDC0B281FD004DC002852
:101990007ED005287DD12FE10E287BD01228F9D1E9
:1019A00041E1162806D0172808D0182808D01C288E
:1019B000F0D109E0E86914B0BDE8F081286AFAE7DF
:1019C000686AF8E7A86AF6E76869F4E720680B90A8
:1019D0001C200C90206801F0E1FE0390016D0BA823
:1019E0008847064603A801F031FF022E0FDB95E879
:1019F00007008DE80700D4E904023346A16904F02A
:101A000077FA20698719A069A0EB06082CE02868FE
:101A100003F014FB2169E8690A18521E606902F09C
:101A20005BFBA269E869111A491C606902F054FB6A
:101A3000D4E904077F1C394602F090FB3946A069BF
:101A400002F08CFB686803F0F9FA20693946401C03
:101A500002F084FBA0693946401E02F07FFBA069BA
:101A60002769A0F10208BF1C286803F0E7FA424684
:101A70003946606902F030FB686803F0DFFA60699C
:101A800042463946401C02F027FB686A022802E001
:101A900015E1B0E000E10BDDA86803F0CFFA616961
:101AA0006A6A881C8B180146424638465B1E27E04E
:101AB000296AB14226DD6069022E074600F102085C
:101AC00001DB374401E007F10207206901DB304404
:101AD00001E000F1020022693B460A444146A2F1BE
:101AE000010202F001FC022E02DBA069821B01E070
:101AF000A269921EA069E9693B46401A4146401C12
:101B000002F0F2FB022E02DB6069064401E0666926
:101B1000B61CE76928687F1E03F090FA3A46314602
:101B2000206902F079FB3A463146A06902F074FB65
:101B3000E7696868BF1E03F081FA20693A463146BA
:101B4000401C02F069FBA0693A463146401E02F093
:101B500063FBE869022802DC286A022823DDA86A00
:101B6000022802DDE1690F1A01E0E769BF1EA868DB
:101B700003F064FAE969022909DD20693B4642184D
:101B800000F1020C31466046521E02F0ADFB286A9D
:101B9000022808DDA269E8693B46101A3146401C5C
:101BA000921E02F0A1FB286803F048FAD4E906204F
:101BB000216902F091FA686803F040FAD4E906203E
:101BC0002169401E491C521E02F086FAA86A0228AA
:101BD00011DDA1692669E469A1F10208271AA41E92
:101BE000B61C7F1CA86803F029FA234642463946F2
:101BF000304602F079FB71E0208A00B2ADF81400A3
:101C0000A18A09B2ADF81610228B12B2ADF81820D5
:101C1000A38B1BB2ADF81A302C69ED68CDE90054E6
:101C200002F026FA5AE0208A298B0844ADF8140005
:101C3000A08AADF81600208B298B401AADF8180049
:101C4000A08BADF81A00206801F0A8FD0390006F8A
:101C5000F0B1022003F03EFA039890F87C10C1F333
:101C6000C00100EB8100006C03F0E8F90398406BC1
:101C700003F0EEF90398006F01F090FD03990990CD
:101C8000B1F95A2005A902F098F809A801F0DEFD83
:101C900003A801F0DBFD21E0208AADF81400A08A42
:101CA000ADF81600208BADF81800A08BADF81A0027
:101CB000A86803F0C3F905A802F03AFB0EE020681B
:101CC00001F06CFD039030F85A1F41F00C010180C7
:101CD00003A801F0BBFD206809F0A8F800206AE61F
:101CE000C806002038B5002450B101F057FD00901F
:101CF00090F87C00000700D50124684601F0A6FD9D
:101D0000204638BD002801D00EF0D4BD70472DE923
:101D1000FC410D46070028D001F040FD0190C16D47
:101D20008C6800F0FBF880460198456301A801F03B
:101D30008DFD22680121384690470646226803211E
:101D400038469047054622680021384690470446A9
:101D5000384600F0C8F92B463246414638460094D2
:101D600000F051F9384608F0E2FDBDE8FC817CB591
:101D70000D46040019D001F011FD0090006F019094
:101D8000684601F063FD294601A804F0A3FB002882
:101D90000BD0204601F002FD0090019901676846D2
:101DA00001F054FD204608F0C2FD7CBD2DE9FC4742
:101DB0000C465FEA000948D001F0F0FC0090428E2A
:101DC000114614B141F0200501E021F02005AA429E
:101DD00038D04586484600F086F9009EF4691FE039
:101DE000204601F0DBFC0190076AB0F90200B6F969
:101DF0000210A0EB010801A801F028FDB6F9561069
:101E000041450CD1B06EA04209D096F83200800650
:101E1000204602D509F0AEF801E008F0CFFC3C46C0
:101E2000002CDDD1009890F87C00400607D5A8066C
:101E3000484602D509F09EF801E008F0BFFC48468C
:101E400008F075FD684601F001FDBDE8FC872DE94D
:101E5000F34F85B000270C46B846059801F09EFC6C
:101E60000090C06D0121856805982A6890478246D8
:101E70002A6803210598904704902A680221059852
:101E8000904703902A6800210598904706460098DD
:101E900009F0D6F98346009809F0D9F981460098EF
:101EA00090F83210890601D5B0F9588000F036F864
:101EB00005460098C06E10B108F096FA07462580D6
:101EC0006780A4F804A0049AABEB020006EB0802BA
:101ED000401E2A4420813A44E280039BA9EB03027E
:101EE000521E6281A4F80CA020827019E681401E67
:101EF0006082684601F0AAFCB4F90C000190B4F9C4
:101F00001000029002AA01A9059800F039F8019882
:101F1000A0810298208207B0BDE8F08F10B501467D
:101F2000002091F83220920607D5B1F9540000281C
:101F300003D1486B02F0BFFA801C10BD70B58AB0A7
:101F40000C46054601F02AFC0990C06D866809A878
:101F500001F07CFC009534B1012C06D0022C0BD092
:101F6000032C04D10AE0182000E0162001907168CB
:101F7000684688470AB070BD1520F7E71720F5E7D7
:101F80002DE9FC4117468846044601F007FC009005
:101F9000C16D056868468E6801F058FC3268002102
:101FA000204690470646204608F020F927E000BF6B
:101FB00001F0F4FB0190B0F900102AB2B0F904303E
:101FC000891A9A1AB0F90230A3EB2543B34210D113
:101FD00090F82800000605D53868884209DB491EBC
:101FE000396006E0D8F80000904202DC521CC8F8C4
:101FF000002001A801F02AFC204608F08FF9040017
:10200000D6D1BDE8FC812DE9FF4F83B00E460746CF
:10201000DDF8409001F0C2FB0190C16D8D68FFF7C3
:102020007DFF044601A801F011FC2A680121384611
:10203000904783462A6803213846904782462A689B
:102040000021384690470546B44207D105998B4593
:1020500004D106998A4501D14D4541D0A41B0026E3
:10206000B046384608F0C2F838E001F097FB00901F
:10207000806A010601D5800502E0810528D50006A9
:10208000002825DB24B122461146384608F01CFD05
:10209000009890F8280000060AD50698A5EB0902DA
:1020A000A0EB0A0004FB16013846761C08F0D7FCAA
:1020B0000098008D80050BD50599A5EB0902ABEBC7
:1020C000010004FB080108F10108384608F0C7FCCC
:1020D000684601F0BBFB384608F020F90700C4D180
:1020E00007B0BDE8F08F70B586B0064601F056FB2C
:1020F0000590D0E91A4505A801F0A8FB54EA0500AF
:1021000026D069463046FFF7A2FEACB1BDF90620E5
:10211000BDF90410204608F079FCBDF90A00BDF9AC
:102120000610421ABDF90800BDF90410521C411AEC
:102130002046491C08F0B3FE002D09D0BDF9060069
:10214000BDF90210421ABDF90410284608F05EFCE1
:1021500006B070BD2DE9F0430446406889B00546DD
:1021600008F0E3F8814601F019FB0290D0F84880AE
:10217000D0F88070466E02A801F068FB206817282E
:1021800053D008DC0E283AD00F2811D014284CD098
:1021900015283DD149E01E281ED01F282AD022280C
:1021A00040D0312834D10020E06009B0BDE8F08390
:1021B0006FF070414046884503D005F023FC01F0E4
:1021C0006FFC002EF1D0D4E902122068CDE904059D
:1021D000CDE9061204A81FE0E0680028E5D02FB181
:1021E000AF4203D0384608F0ABFDDEE7284608F0E2
:1021F000F5FDDAE72146484607F035FCD5E7E0680B
:102200004168002904DD00680928EFD00A2805D0BC
:102210005EB12046C4F80490B047C6E7284608F0EF
:10222000E5FDC2E7C4F80C80BFE7204607F0ACFE2E
:10223000BBE700008000A0F1C040002904D0016885
:1022400041F00101016070470168024A11400160DC
:1022500070470000FEFF0F0070B501688900A1F112
:10226000C0410B68344A1340D0E901242243D0E92D
:1022700003452C4322434469224384692243C469B1
:102280002243046A2243446A2243846A2243C46A82
:102290002243046B22431A430A608168082907D14C
:1022A00001688900A1F1C0410A6842F040020A6059
:1022B0000168491C8A00A2F1C042116801F0404443
:1022C000416BD1E9003543EA05138D688E892D02F3
:1022D00045EA06452B430D8A43EA05530D7D89697E
:1022E00043EA05630B4323431360C16AB1F5804F92
:1022F00008D000686FF070418000A0F1C040C0F8C5
:10230000041170BD01688900A1F1C041D1F8042118
:102310000A4B1A40806BD0E9003443EA0413846806
:102320008589240244EA0544806923430343134317
:10233000C1F8043170BD00008000F7FF0000F0CF4D
:102340002DE9F0430446C56887B0904689460020D1
:1023500002F07CFE064625B1287910B146F0020055
:1023600001E026F0020002F071FE2069012558B15B
:10237000D4E902128DE82600039563882288046858
:1023800041464846A0471EE0124F134B214638688D
:102390001B68427CE068984730B9E088012801D08A
:1023A000002001E03868806BA288E388A16800956E
:1023B000CDE90410CDE902320195638822884146B7
:1023C000484604F021FF07B03046BDE8F04302F074
:1023D0003DBE0000AC020020A40200201CB5002479
:1023E000019401AC009400F0E7F81CBD2DE9FF4F0B
:1023F00083B0814606988A46A0EB0A08109E00200A
:102400000090A2EB09043568934654EA080018D0FE
:102410002046FEF749FA07464046FEF745FA87424E
:102420000BDA2046444680464846D1468246584606
:10243000DDF818B0069001200090002C07DD204642
:1024400006E007B04846BDE8F04F00F03BB96042F7
:10245000A0420AD04846D9466442C8F100088346E3
:102460004FF0FF37DDF818A000E001275148B8F120
:10247000000F11D004EBD4714FEA610B01DACBF1FC
:10248000000B4C480068807E88B3002F02DA306869
:102490002044306000257BE000990029016821D0AC
:1024A000897E11B10027804615E007B05A4649469B
:1024B0005046BDE8F04F05F009B828466D1C0EF0F7
:1024C00021FB38B9D8F8000009EB0701406E4268DB
:1024D000504690477F1CA742EFDD6D1E356007B068
:1024E000BDE8F08F8A7E1AB10027804617E019E018
:1024F000486E5A465146036807B04846BDE8F04F5B
:10250000184728466D1C0EF0FDFA38B9D8F80010AF
:1025100009EB0700496E4A68514690477F1CA74265
:10252000EFDDDAE700250FE008FB05B090FBF4F1E2
:1025300001EB0A00009951B11E4A09EB050112682E
:10254000526E526890476D1CA542EDDDC7E71949F0
:1025500009EB05030968496E4A6801461846F1E728
:1025600008FB05B090FBF4F101EB0A000190306824
:10257000384430600EF0C6FA48B9009890B10D4862
:1025800009EB05010068406E4268019890476D1C98
:10259000A542E5DD3068002F01DA20443060C01B21
:1025A00030609CE7034909EB05000968496E4A68F9
:1025B0000199EBE7AC0200202DE9FF470F464049A7
:1025C0001646804609680C981D460A7E012A1CD0D2
:1025D000A8EB0600791B50EA01031CD0A2F1010907
:1025E00010F000F900F58060824604F062F800FB0C
:1025F00009F4504604F062F800FB09F1002C0CDAF3
:10260000C4F50070801240420AE00090324639461C
:102610004046FFF7EBFEBDE8FF8704F50074A0120B
:10262000002904DAC1F5007189124C4202E001F57B
:1026300000718C12002804DD411C01EBD17149109E
:1026400003E000EBD0714910401E00EBD070421047
:10265000002C04DD601C00EBD070401003E004EBA4
:10266000D4704010641E04EBD47308EB0104ADF881
:1026700000403C18ADF80240A8EB02045B10B21A0F
:10268000ADF80440ADF808203144FC1AEA1AADF860
:102690000C102844ADF80A20ADF80E000023ADF868
:1026A00006401A460421684600F07AF8394640464A
:1026B0000BF018FB294630460BF014FBABE700008B
:1026C000AC020020064A13681A7E012A05D0521E69
:1026D00002EBD272521000F005B85A6E52681047E1
:1026E000AC0200202DE9F05F0646884640F2C32088
:1026F00002FB00F14FF47A7091FBF0F702FB02F15C
:1027000002EBD27001EB600B1446B118234A301B68
:102710007F1C1268526E13680A464146984701258D
:1027200038E000BF05FB05F004FB040159451CDD42
:10273000BC4219DD194B06EB050AA6EB05091B681F
:10274000AAF1010208EB04015B6E09F101001B68AC
:102750009847124BAAF10102A8EB04011B6809F18A
:1027600001005B6E1B689847641E0C4B3219301BCE
:102770001B68924608EB05015B6E81461B68984713
:10278000064B5246A8EB05011B6848465B6E1B686A
:1027900098476D1CBD42C5DDBDE8F09FAC0200202E
:1027A0002DE9FF4F43F6FF740F46664283B09B4608
:1027B000814600210BE000BF09EB8100B0F9020067
:1027C000A04200DA0446B04200DD0646491CB94288
:1027D000F2DB67480068406900280DD0B0F90610A8
:1027E0001A46A1EB0B01B14200DA0E46B0F9020025
:1027F000801AA04200DD0446B4E0DFF878A1002092
:102800000546CAF8000088E0781E854201DA6B1C94
:1028100000E0002309EB850C09EB8302BCF9020000
:10282000B2F90210A04244D1A14215D139F92330A6
:10283000059A39F9251003EB020C4D4A05981268E8
:10284000084404EB0B01526E6045136801DA6246DE
:102850002AE00246604627E02846A4464FF00008DA
:102860007A1E0BE008B1401E00E0781E09EB8003E1
:10287000B3F90230634504D108F101089045F1DB5A
:102880002346A34248D01A1B39F92500A1EB040CBA
:10289000059B92EA0C0F09D4354A184404EB0B014E
:1028A0001268526E13680246984735E009F03AF90B
:1028B00032E0A14230D001DBA04203DDA0422BDB9D
:1028C000A14229DCE04688420ADC0346A04223DC20
:1028D0000846A14220DBB8F900C0B2F9001008E0B8
:1028E0000B46A14218DCA04216DBB2F900C0B8F9D1
:1028F0000010E21AA1EB0C0151430029A0EB0302E6
:1029000002DD01EB620102E0A1EB6201491CC01A89
:1029100091FBF0F06044C9E76D1CBD42FFF674AF57
:102920000598009004EB0B000190002080460546BE
:1029300013E01149B8F1000F31F915A009D0009941
:1029400001EB0A0208440A490968496E0B680199BB
:10295000984788F0010850466D1C064909688D4269
:10296000E7DB641CB4427FF748AF07B0BDE8F08FE7
:10297000AC0200202804002078D2002010B50020EE
:1029800002F05AFB6FF07F4002F058FB012002F08A
:102990008FFB002002F094FB002002F09BFB002044
:1029A00002F054FB0448006802F052FBBDE81040FE
:1029B000002002F059BB0000A80200202DE9F041E0
:1029C000002201274FF0030C07FA02F50B682B4099
:1029D000AB422CD1066853000CFA03F4A643066000
:1029E0000E79D0F800809E4046EA080606600E790F
:1029F000012E01D0022E12D18668A64386604E7940
:102A0000D0F808809E4046EA080686604668AE43D5
:102A1000466045688E799640B6B235434560C568D4
:102A2000A543C560CC799C40C3681C43C460521C5C
:102A3000102AC9D3BDE8F08110B54B07DB0E9A40D0
:102A4000C90800EB8100016A0F249C40A143016288
:102A5000016A1143016210BD0246002012690A4258
:102A600000D0012070474183704701837047000008
:102A7000FEB5002000900190029080258DF8005056
:102A800051208DF801000A226946BA2000F04AF868
:102A9000002801DA0020FEBD9DF802009DF8031019
:102AA00000EB012086B29DF804009DF8051000EBB4
:102AB000012084B28DF8005056208DF801000322C9
:102AC0006946BA2000F02EF8002801DA0020FEBD89
:102AD0009DF8020000F003032246314602A00FF0E9
:102AE00059F90120FEBD00003C3C2D4754502D49B2
:102AF0004E464F2D3E3E20585F4D4158203D2025EB
:102B0000642C20595F4D4158203D2025642C2054D1
:102B1000524947474552203D203078253032780AC7
:102B200000000000F0B587B00E4617464FF0FF35A5
:102B300000240021ADF806108DF804000221ADF844
:102B4000081003960121ADF812108DF81000B81E80
:102B5000ADF81400B01C069007E0022101A803F0B4
:102B6000B0FF0546022D02D0641C052CF5DB052CB8
:102B700008DB707831782B4640EA0121BA1E034801
:102B80000FF008F907B02846F0BD0000FCF10F086F
:102B900038B50D48006800900024651E0DE0032242
:102BA0006946BA20FFF7BEFF45B2002D01DD284679
:102BB00038BD214605A00FF0EDF82046641CE4B2B4
:102BC0000528ECD3284638BDB87C01083C3C2D478D
:102BD00054502D4552524F522D3E3E2047545020C6
:102BE0006932632074657374206661696C65642062
:102BF00074696D652025642E0A000000FEB50E463E
:102C000017464FF0FF3500240021ADF802108DF873
:102C10000000ADF80470029607E00121684603F059
:102C200050FF0546012D02D0641C052CF5DB052C58
:102C300008DB707831782B4640EA0121BA1E024841
:102C40000FF0A8F82846FEBD4CF20F082DE9F04120
:102C500000254FF4817011F06DFD04468020207036
:102C60005020607003F024FFFFF792FF0746002F0B
:102C700005DA31A00FF08EF83846BDE8F08100F09B
:102C80007DF838480078022802D1DFF8DC80EF2692
:102C90004FF48071A01CFDF7BAFA32464146A01CE1
:102CA000FDF78EFA31480088E070000A2071304844
:102CB00000886071000AA0712E48007808280ED2A2
:102CC000DFE800F00409040904090409207A20F06F
:102CD0000800207203E0207A40F0080020720220F1
:102CE000711E07E02218235C527805EB03231A4477
:102CF00095B2801C8842F5DB6842020AA11901F8EE
:102D0000012CA055012048700025321D2146BA2013
:102D1000FFF774FF002802DC6D1C052DF5DB16485B
:102D2000FEF751FC03F02EFEFFF7A2FE204611F045
:102D3000C9FB0020A1E700003C3C2D4754502D4525
:102D400052524F522D3E3E2049324320636F6D6DEB
:102D5000756E69636174696F6E204552524F5221DE
:102D60000A000000DC000020CC7C0108C20000202A
:102D7000C4000020C0000020FFFF0F0030B585B068
:102D80003E480169C068CDE90301082203A9BA20C1
:102D9000FFF7C8FE0446200005D539A00EF0FAFF63
:102DA000204605B030BD9DF80E10404D352916D097
:102DB0009DF81100002835D09DF812209DF81330A1
:102DC000CDE9013200909DF810309DF80F2038A019
:102DD0000EF0E0FF9DF80E0039283FD04CE09DF842
:102DE00013209DF81130CDE900329DF812000290B9
:102DF0009DF810309DF80F2039A00EF0CBFF9DF804
:102E00000E00352838D19DF80F00362834D19DF8B2
:102E10001000382830D19DF8110038282CD102201C
:102E2000287029E09DF812009DF81320CDE90020BC
:102E30009DF810309DF80F2035A00EF0ABFF9DF8E7
:102E40000E00392818D19DF80F00312814D19DF8B3
:102E50001000312810D1012028700DE09DF80F00DE
:102E6000312809D19DF81000352805D19DF81100B1
:102E7000372801D100202870204692E7B87C01084D
:102E80003C3C2D4754502D4552524F522D3E3E2032
:102E900047545020726561642076657273696F6E65
:102EA000206661696C65640A00000000DC00002097
:102EB0003C3C2D4754502D494E464F2D3E3E204917
:102EC00043332056657273696F6E3A20256325631C
:102ED000256325635F25303278253032780A00007B
:102EE0003C3C2D4754502D494E464F2D3E3E2049E7
:102EF00043312056657273696F6E3A2025632563EE
:102F0000256325635F25303278253032780A00004A
:102F10003C3C2D4754502D494E464F2D3E3E2049B6
:102F200043322056657273696F6E3A2025632563BC
:102F300025635F25303278253032780A00000000A2
:102F40000EB503F0E7FB12484FF00002B0F9001095
:102F5000481C10D00E480A30B0F90000431C0AD0BB
:102F600001238DF80830009101908DF80920684602
:102F700001F0BAFF0EBD4FF0FF30009001908DF8C8
:102F800008208DF80920684601F0AEFF0EBD000054
:102F9000EA000020034B23F8101003F10A0121F886
:102FA00010207047EA000020044A4FF0FF3122F859
:102FB00010100A3222F8101070470000EA000020BA
:102FC00070B50C46054600F0FFF8A8682168C1629C
:102FD00061680163A1684163490707D5D0E9002111
:102FE000C0E90012D0E90221C0E90212A18981845E
:102FF0002169002903D001DC4FF00001016270BD9E
:103000002DE9F0411E4617468846054600F0DCF8DB
:10301000AC686822414604F58670FDF7D1F8284671
:10302000B8472846B047286980688047A062BDE855
:10303000F081000010B5044600F0C6F8A068114900
:10304000144AC0F8AC101049C0F8A8100F49C0F8D5
:10305000B0100F49C0F8B8100021C0F8BC101368B8
:10306000C0F8B4300C4BC0E932315168C0F8C4101C
:1030700030F8261F21F0030120F82A1B074941647C
:1030800010BD0000DD0B010881110108A50B01082E
:10309000CF050108280300209F060108D50A010872
:1030A00010B5044600F090F8A46810481021C4F848
:1030B000E4000F48C4F8E8000E48C4F8EC000E48DD
:1030C000C4F8F0000D48C4F8A0000D48C4F8A400EE
:1030D000D4F8C400C4F8FC00D4F8942020469047EB
:1030E0001020A0630748606410BD0000E9D200080A
:1030F000BDE30008093100083932000889050108DC
:103100009D150108B4E20F08F8B5846815460F460E
:1031100094F8260080074CD5D4F800312046984713
:103120000646D4F804312A46394620469847D4F852
:10313000983005461BB1002201212046984720699E
:10314000B04201DD012000E00020A169B14201DAB6
:10315000012100E0002108436169A94201DD01214C
:1031600000E000210843E169A94201DA012100E001
:10317000002108430AD060680022401E00902368A6
:10318000D4F8A870114620465B1EB847D4F8AC307E
:103190002A46314620469847D4F8A0102046884752
:1031A000D4F8983005466BB101220021204698479B
:1031B00008E0D4F8AC3020469847D4F8A010204658
:1031C000884705462846F8BD70B504468068002843
:1031D00012D14FF4BA75284600F05AFA2A46002157
:1031E000A06003F0E8F9A0680221C1840121046411
:1031F00001620249C0F8081170BD000001320008E8
:1032000010B590B0044620220A496846FCF7D8FF62
:1032100008492022203108A8FCF7D2FF606B5DF836
:103220002010C4F8001108A951F82000C4F80401C6
:1032300010B010BDB89D0F082DE9F843846898467A
:10324000154694F826000F46800740D5D4F8003183
:10325000204698470646D4F804312A463946204687
:10326000984705462069B04201DD012000E00020BA
:10327000A169B14201DA012100E00021084361693E
:10328000A94201DD012100E000210843E169A942D2
:1032900001DA012100E0002108430AD06068002221
:1032A000401E00902368D4F8A870114620465B1E8B
:1032B000B847D4F8AC302A46314620469847D4F86F
:1032C000A42001B041462046BDE8F0431047D4F8A1
:1032D000AC30F2E72DE9F04FDFF828B191B04FF0B4
:1032E000FF35DBF80030B3F922100691DE69B3F93F
:1032F0002490F469A189814206D8E289824203D3ED
:10330000471AD4F8008012E0D4E9018100296FD077
:103310000A8882426CD84D88854269D3801A82B26D
:10332000486800EB8200B0F90070B0F90250781CD8
:103330005ED0307EA17C10FB01FA217CCDE9070133
:10334000B3F92A60304604F0ADFBC0B20E90DBF852
:10335000000007FB0A81A37C826B0127CDE90412E0
:10336000CDE90273C069089AC17E807ECDE9000173
:10337000DDE90603494603F047FF681C18D046F014
:10338000020004F08FFBDBF80000A37C05FB0A8140
:10339000826BCDE90273CDE90412C069089AC17E3F
:1033A000807ECDE90001DDE90603494603F02CFFEC
:1033B000DBF800005D46C069417E007E814214D981
:1033C000022E12D086F0040004F06CFB2868C0695D
:1033D000027EC37E12FB0391437E857E089A069887
:1033E0004B4412FB050204F09BF80E9804F05AFBC4
:1033F000DBF80000627C418C1144418411B0BDE8CF
:10340000F08F0000AC02002004480068C069C06969
:1034100009B1027C0A60407C70470000AC020020C9
:10342000022008807047C06982898A4202D8C28916
:103430008A4210D2806880B102888A420DD84388BF
:103440008B420AD3406800EB8100A0EB8200B0F908
:103450000000002801DB01207047002070470000B9
:103460002DE9F043304C034687B020681946B0F987
:103470002A60C069C06900F086F8002850D0416811
:103480000088181A01EBC0053046AF7804F00AFB3B
:10349000814620686A680123816BCDE90237CDE956
:1034A0000421C169CB7E8A7ECDE900230B7EB0F971
:1034B00024102A78B0F9220003F0A6FE2068C06923
:1034C000417E027E91421FD9C07E11FB00F812FBA3
:1034D00000F7022E18D000F0ACFF064600F08CFF7B
:1034E00001F0ACFD21682A78CB69B1F92200DB7EBE
:1034F00012FB0302B1F9241001EB0803394404F074
:103500000FF8304601F09AFD484604F0CBFA2068E7
:103510006A78C369B0F922109B7E12FB03114184C3
:1035200007B0BDE8F0830000AC02002030B50F4CBE
:1035300005460B4620682946C069C06900F023F89B
:10354000002812D04168008824682A1A0120E46902
:1035500000EBC200085CA47E10FB04F0002B04D03A
:1035600011F8321011FB04F1196030BDAC020020DB
:1035700001200880704700B5C06900F004F80028F9
:1035800000D0012000BD06E002888A4202D84288AD
:103590008A4202D280680028F6D17047F8B5054605
:1035A0000C000DD0084600F015F8060010D000F011
:1035B000F5F8224600902DB12946FCF701FE04E003
:1035C0000020F8BD002102F0F6FF684600F03EF949
:1035D0003046F8BD002801D008F07EBB704738B5F2
:1035E0000546FFF7F7FF040009D000F0D7F82A4698
:1035F0000021009002F0DFFF684600F027F9204626
:1036000038BD0000024A106021F00300506070478E
:103610009CD1002010B5002814D004460A48406B05
:1036200010F8341000290DD002290BD2042101EB2F
:10363000C4014158486808F091FA2046BDE810409E
:103640000CF08EBF10BD0000DCD00020002805D09B
:10365000034AD16B016001B14860D063704700003C
:10366000DCD0002010B504460068FFF7D3FF00202F
:10367000206010BD70B50D460646002405E000BF71
:1036800006EB8400FFF7EEFF641CAC42F8DB70BD74
:103690002DE9F04104460BF001FF2848E41C24F01A
:1036A0000305016C2D1DA94200D90D46C46B13E022
:1036B00054F8042CAA420ED184B1216809B1626881
:1036C0004A60616809B122680A60C26BA24231D1C6
:1036D0002168C1632EE02468002CE9D18046816B0B
:1036E000C0680F1857F8040C3E1A306838B1002033
:1036F0000DF050F857F8040C3E1A3068D0B97068D5
:10370000A84217DB3044441B3046241D0CF0FAFF5E
:10371000D8F80C10491BC8F80C10D8F8141029441C
:10372000C8F814107068401B02D0314608F016FA31
:1037300044F8045C2046BDE8F0810000DCD00020A5
:1037400010B500240BF0AAFE0C490F2001EBC002BB
:10375000526C1AB101EBC000406C08E0401EF5D578
:1037600008E04168A14200D90C46806810B1806829
:103770000028F6D1A4F10C0010BD0000DCD0002020
:10378000002138B10449042202EBC000496B0858FB
:1037900041680C3908467047DCD000200549CA69E9
:1037A000521CCA61496B01EBC0010A78521C0A70B5
:1037B00000F064B8DCD000207CB506460C46084614
:1037C000FFF708FF05001CD0DEB13046FFF7D8FF39
:1037D000A04200DA04462846FFF7E0FF009030469A
:1037E000FFF7DCFF0146019022460098FCF7E8FC59
:1037F000684600F02BF801A800F028F83046FFF7E3
:1038000009FF28467CBD000010B5FFF799FF642230
:103810000649B0F5800F04D990FBF2F0096A4843DD
:1038200010BD096A4143B1FBF2F010BDDCD00020AD
:103830000549102805D94A68B0EB520F02D3500849
:1038400000E01020886070479CD100200A4902687F
:103850004B6B52F8082C03EBC2021378022B03D3F4
:10386000CB690BB15B1ECB611178491E1170002131
:103870000160084670470000DCD00020002806D018
:103880000349042202EBC000496B08580830704716
:10389000DCD000202DE9FC414FF000060B465FEA2A
:1038A000000834462BD032B111461846FFF776FE99
:1038B000060000D101244046FFF770FF0090078802
:1038C00045686846FFF7C2FFCCB9B9002846091D14
:1038D000FFF772FF050015D0FFF760FF019040F879
:1038E000276001A8FFF7B2FF4046FFF757FF00909F
:1038F00045600188491C01806846FFF7A7FF204604
:10390000BDE8FC813046FFF785FE0124F7E708207B
:10391000FFF765BE7CB5050023D0FFF73FFF0090A1
:103920004068C0B1FFF73AFF0024019005E001981C
:1039300000EB8400FFF796FE641C00980088A0420C
:10394000F5DC01A8FFF782FF0098001DFFF78AFE53
:103950000099002008806846FFF778FF2846FFF7A7
:1039600059FE7CBD38B5002430B1FFF717FF009039
:1039700004886846FFF76AFF204638BD38B50D4613
:10398000002448B1FFF70AFF2946009000F016F81E
:1039900004466846FFF75AFF204638BD38B50D4645
:1039A000002448B1FFF7FAFE2946009000F018F80D
:1039B00004466846FFF74AFF204638BD38B50D4635
:1039C00001880024A94209D9406838B1FFF7E6FE12
:1039D000009050F825406846FFF738FF204638BD74
:1039E00010B50024FFF7EAFF10B1FFF7D7FE044639
:1039F000204610BD70B506460D461446104600F030
:103A00001FFD0300164804EB84010AD050F8210082
:103A100041688068711A2A1ABDE87040184601F0A2
:103A200021BB00EB8104A268B24201D0012200E078
:103A30000022E368AB4201D0012300E000231A43D7
:103A40000CD0236943B150F82100816840686A1A9C
:103A5000311A184601F0C0FAC4E9026570BD0000D1
:103A600030D3002010B5C2B2CBB2D21A00D5524228
:103A700093B25B43C0F30722C1F30724121B00D5A6
:103A80005242000C92B2A0EB114002FB023200B293
:103A9000002801DA404200B280B200FB002010BDD5
:103AA00010B50021084600F01BFD43F6FF7250429E
:103AB000BDE8104013460146AFF300802DE9FC41FC
:103AC00007461C4615460E46042003F0EBFF8046D1
:103AD0001148C068C16C006D0F4406440D44044495
:103AE000ADF80070ADF80450ADF80260ADF80640D6
:103AF000684607F0B3FB07E023462A4631463846BE
:103B000003F00EFD07F05EFB0028F5D1404603F000
:103B1000C9FFBDE8FC810000A0020020B0F906301A
:103B2000B0F90420B0F90210B0F90000FFF7C6BFE9
:103B30002DE9F8431C00DDE9089816460F460546B6
:103B400002D106F035FB044600962E6843464A46ED
:103B500021462846B047061E35D006F01DFB81469B
:103B6000698A304606F00FF8304607F003FA4846F7
:103B700007F000FA4FF000080CE000BFCDF800801D
:103B800055F81CCF00231A4649462846E047E0B1C5
:103B900007F0F0F97F1E002FF0DC1D21484607F0EA
:103BA00046F8601C0ED006F033FB30B1FFF766FE1E
:103BB0008469B44201D02000F8D1B44202D030462A
:103BC00007F00CF93046BDE8F883304606F010FAED
:103BD0000020F8E72DE9F0411C4616460D46074641
:103BE000022B02DB0020BDE8F0811C20FFF750FD16
:103BF0000028F8D00DB105610AE0094A52F82410F6
:103C000009B905E011460A68002AFBD1096901617A
:103C100084618682002101604160C0E90217E2E709
:103C2000C402002070B51D46FFF7D4FF040009D080
:103C300000F00EF8E068006820B90348006800EB67
:103C400085008465204670BDAC020020FFF7FEBCF5
:103C500070B590B38269022A30DA1E4C54F82210F3
:103C600019B944F8220032E019464B68002BFBD109
:103C700006E0CB68C5681B682D68AB4203DD0968A8
:103C80000029F6D11AE0C1B1CB68C6681B68366856
:103C9000B3420CD1838A012B05D008E01946DB68BA
:103CA0001B68AB4203DB0B68002BF7D129B14B68D3
:103CB00033B118604A68426004E0FFE7012070BD3C
:103CC00044F822004860884200D1002101600020B1
:103CD00070BD0000C40200200A4A816952F82130F8
:103CE000834202D1036842F82130416809B1026879
:103CF0000A60016809B142684A60002101604160C0
:103D000070470000C4020020022801DB0020704739
:103D1000054951F8200004E0C16809680029F6D07F
:103D200000680028F8D17047C4020020F8B5164694
:103D30000F4605004FF000040FD00C20FFF74FFC9A
:103D400004000AD0FFF72AFD05490090C0E90015DC
:103D5000078146816846FFF779FD2046F8BD0000DF
:103D600008E30F082DE9F8431D461646884604006F
:103D70000CD0FFF713FD0090006807686846FFF756
:103D800065FD2B46324641462046B847BDE8F883DC
:103D900070B5044601F002FC051908E000F06AFA6B
:103DA000052C01DD052000E0204601F0EBFB01F0D1
:103DB000F5FB2C1A002CF1DC70BD47F6FF73AFF356
:103DC00000802DE9FC411F46904606000D464FF04D
:103DD000000416D065B1084607F080F8040007D04B
:103DE00002462946684602F06AFA684607F076F805
:103DF0003B4642462946304601F0B2FD204607F0D8
:103E00006DF8BDE8FC812DE9FF4F87B090468946EB
:103E1000070079D00C68D9F8045021B228B2401AB2
:103E2000401C029000F024FB064618F00C0F1ED038
:103E300038460A9A029901F080FB08F00C01042927
:103E400004D0082902D00C2911D104E0291400FB68
:103E50001610401C09E02114C1EB254200FB16207E
:103E6000401C00EBD07001EB600060F31F4448463B
:103E700007F034F85FEA000B09D00246494604A86F
:103E8000CDE9044502F01BFA04A807F027F8A6F1D3
:103E9000010A38460A9A029902F05CFB03900AEB89
:103EA000244060F31F45CDE900453846039902F0F0
:103EB0006FF918F003010ED0012928D002290ED184
:103EC000B9F90420B9F90010521A101A00EBD07099
:103ED00001EB600001E0B9F80000ADF800006A46AF
:103EE0003846039901F0E4FC38460A9A029902F038
:103EF00027FB074406EB244060F31F443878002872
:103F0000C7D1584606F0EAFF0BB0BDE8F08FB9F80C
:103F10000410081A401CE0E77CB50646104800680B
:103F2000C36C006D5D1884183188681E0844ADF8B4
:103F30000400ADF800507188601E0844ADF806001A
:103F4000ADF80240684607F089F906E022462946A6
:103F50003046FEF7F5F907F035F90028F6D17CBDBB
:103F6000AC0200201CB50A460146684602F09CFAE5
:103F70002448BDF80010006830F84C2F1144ADF80B
:103F80000010BDF8021082881144ADF80210BDF88F
:103F9000041002881144ADF80410BDF806108088A2
:103FA0000844ADF80600684607F058F927E000BF5E
:103FB000BDF900400BE000BFBDF90210204603F040
:103FC00051FABDF90610204603F04CFAA41CBDF9C5
:103FD0000400A042F0DABDF902400AE0BDF9000099
:103FE000214603F03FFABDF90400214603F03AFAF6
:103FF000A41CBDF90600A042F0DA07F0E3F800289F
:10400000D6D11CBDAC0200202DE9F04F0C4616495C
:1040100087B00D68DDE91098E96C0F18286D8D18D0
:104020000619C418ADF81070ADF81450ADF8126050
:10403000ADF8164004A807F011F9002811D0DFF8F8
:104040002CB04FF0000ACDE90098CDE902BA2B461A
:1040500022463946304609F019FD07F0B3F800282A
:10406000F1D107B0BDE8F08FAC020020CD7400089C
:104070002DE9F04F164C87B02568DDE91098EC6CFF
:104080002718286DA5184618C418ADF81070ADF89B
:104090001450ADF81260ADF8164004A807F0DEF831
:1040A000002811D0DFF82CB04FF0010ACDE90098BC
:1040B000CDE902BA23462A463146384609F0E6FCE5
:1040C00007F080F80028F1D107B0BDE8F08F0000BC
:1040D000AC0200200D7400082DE9FC41104F04468D
:1040E0003B68D86C4518196DADF800500E1984184E
:1040F000ADF80440ADF80260ADF80660684607F020
:10410000ADF808E0386822463146406E036828461C
:10411000984707F057F80028F4D1BDE8FC8100006B
:10412000AC0200202DE9F0410B4C2568EC6C2718FF
:10413000286DA5184618C418002007F08FF807E06E
:1041400023462A4631463846FEF748F907F03AF842
:104150000028F5D1BDE8F081AC0200207CB50E4D01
:104160002A68D36C1E18106DADF804604418ADF8C1
:104170000060ADF80640ADF80240684607F06EF802
:1041800007E028682146406E42683046904707F0B5
:1041900019F80028F5D17CBDAC0200202DE9FC41C6
:1041A0001C4C2468E66C94F818C03718206DACF1EC
:1041B000010C4518C418A7EB0C001644ADF800001C
:1041C00006EB0C00ADF80400A5EB0C00ADF8020006
:1041D00004EB0C00ADF80600684607F03FF815E068
:1041E00032462946384603F011F932462146384610
:1041F00003F00CF9621E691C384603F067F9621E71
:10420000691C304603F062F906F0DCFF0028E7D1B4
:10421000BDE8FC81AC0200207CB50E4B1B68DC6C59
:104220002618186DADF8006045188418ADF80460C4
:10423000ADF80250ADF80640684607F00FF806E00A
:1042400022462946304603F041F906F0BBFF00281C
:10425000F6D17CBDAC02002070B50C46054600F0DE
:10426000F9F810B10121C0E900142846BDE87040FA
:1042700006F02ABF10B5002400E0012400F004F885
:104280000028FAD1204610BD094810B50068002466
:1042900010B1804700B1012405F02AFF00B10124CC
:1042A0000448006810B1804700B10124204610BDC9
:1042B000D0020020CC02002070B51646094A1268D0
:1042C000D36C1C18106D4518002006F0C7FF06E0DF
:1042D000324629462046FEF705FA06F073FF00280D
:1042E000F6D170BDAC0200202DE9FC410F4C2568D1
:1042F000EC6C2718286DA5184618C418ADF8007086
:10430000ADF80450ADF80260ADF80640684606F01E
:10431000A5FF07E023462A463146384603F000F958
:1043200006F050FF0028F5D1BDE8FC81AC0200206A
:10433000B0F90630B0F90420B0F90210B0F900006D
:10434000FFF7D2BF08B50B46002805D00092818840
:104350008268C08800F001F808BD10B50828029CEA
:1043600030D008DC04FB01F401280AD0022813D065
:10437000042804D11CE0102828D020282CD00020AC
:1043800010BD04EBD30003F00701105CC1F107017D
:10439000C84000F0010010BD04EB93000621105C42
:1043A00001EA4301C1F10601C84000F0030010BD5D
:1043B00004EB5300D907105C02D000F00F0010BDD1
:1043C000000910BD04FB0130105C10BD481004FB57
:1043D000003032F8100010BD881004FB003052F895
:1043E000200010BD034951F82000C1688A6A0821E5
:1043F00010470000C402002010B503F0C1F8BDE86A
:10440000104003F07FB9000002490968C9694A6891
:1044100000211047AC020020024A1268D26952689B
:1044200010470000AC020020002801D005F0A4BE17
:10443000704710B503F0ACF8BDE8104003F062B966
:104440000021022802D2024951F820100846704784
:10445000FC0200201FB500210191029103912A2145
:104460000091694606F0DEFB039804B010BD000021
:1044700002480068C069407E70470000AC0200201E
:1044800070B514460D4603F0CFF8002802D0002086
:104490002860206070BD01F0CFBE10B5044601F069
:1044A000BDFE01462046BDE8104001F071BE01F09E
:1044B00075B8407E7047017EC07E11FB00F07047EA
:1044C000024951F82000006900687047C4020020CA
:1044D000024951F82000006940687047C40200207A
:1044E00070B50D460AF00EFF044628460AF012FF8A
:1044F000204370BD2DE9F0411948016821F0010108
:104500000160184801258560174901600068174956
:10451000884200D0FEE701F0FDF8154E2E203070E5
:1045200001F042F813480AF081FF0FF070FF0746D0
:1045300003F0A2F810B103F0B3F838B903F0B9F8FA
:10454000044603F0A2F8214603F0A6FA002108462B
:1045500000F092FD06F046F975703846BDE8F0812E
:10456000002000E000300240C2A507F4CDB5E8B558
:10457000A0020020A8D100201CB520B90C4800687A
:10458000006E002812D0FFF709F9009044696846D0
:10459000FFF75CF9002C09D02046FFF7FFF80190E7
:1045A00081688968884701A8FFF750F91CBD0000A1
:1045B000AC02002001490A4600F002B801F0FFFFFA
:1045C0002DE9F04387B015460C465FEA000842D05B
:1045D000002000F03BFD814620480068066E404602
:1045E000FFF7DCF800900068806900F00DFD0746D9
:1045F00040F6FF70C44204D10098B0F90440B0F90D
:1046000006500098611E0289ADF804401144ADF8CF
:1046100008104189681E0844ADF80650ADF80A003C
:1046200005F082FB6846FFF711F901A806F016FEB7
:1046300006E02A462146404600F04EFB06F0C2FD49
:104640000028F6D1384600F0DFFC304600F066F96D
:10465000484600F0FBFC07B0BDE8F083AC02002048
:104660002DE9FE4F83461A488A461A4900680C9E77
:104670009846407C9146002751F82040E16809683F
:10468000042903D02468002CF8D100E01CB9FFF7FE
:104690003BFB041E19D0E0680121C26A2046904706
:1046A000050011D02469A0688047401C02D10A4C43
:1046B00046F001060096CDE9015443464A4651466C
:1046C000584600F0AFF907463846BDE8FE8F0000B7
:1046D000AC020020C40200202CE30F0838B504000F
:1046E00018D00D480068006EA04201D100F082FC95
:1046F0002046FFF753F80090406908B100F00BFF27
:1047000000980068FFF7A2FA6846FFF79FF8204676
:10471000FEF780FF38BD0000AC0200202DE9FF4FFE
:10472000DFF83891074683B0D9F800009A468B46E7
:10473000447C4B4800570128204606DD02F0A2FFCA
:104740000546204602F0B2FF05E002F083FF054671
:10475000204602F085FF04461FB302A901A8FFF717
:104760009AFEB7F90000002800DA0020B7F90260CD
:104770008046002E00DA002601984119B7F904009E
:10478000491E0AF0E7FF054602980119B7F906002D
:10479000491E0AF0DFFFA5EB0802841B521C641CB3
:1047A00003E04FF0000846462A46BAF1000F01D157
:1047B000C4F1000A002A4FDD002C4DDD1098009056
:1047C000534631464046FFF74BFF5FEA000A10D0E0
:1047D00000F06AF80746A04206D0D9F80000806CC5
:1047E00010B1322107F0D4F8504600F097F80025B8
:1047F00021E0594605988847012007B0BDE8F08FB1
:10480000611BB94202DA504600F072F83DB17219EC
:104810004146504600F0A4F85046FFF7ADFE594619
:10482000059888470F48016809B10020884750461D
:10483000FFF7C0FE3D44A542E2DB5046FFF74EFFC6
:10484000002000F06BF8A74206D0D9F80000806C79
:1048500010B1332107F09CF80020CEE7AC02002015
:10486000E40200208C04002038B5002460B1FEF77B
:1048700095FF0090006800698068804703F0E4FAC3
:1048800004466846FEF7E2FF204638BD38B50028EA
:1048900008D0FEF783FF00F1180400906846FEF789
:1048A000D5FF204638BD000038B5002418B90748A8
:1048B0000068006E38B1FEF771FF0090B0F90A4051
:1048C0006846FEF7C3FF204638BD0000AC0200205A
:1048D00070B505460024284607F0EAFC641C18B1B0
:1048E000BDE8704000F068B8052CF4DB70BD000036
:1048F00038B50C4620B908480068006E00280AD078
:10490000FEF74CFF0090B0F90A10A14200DD44818F
:104910006846FEF79BFF38BDAC020020F8B50F4E8D
:1049200005003068046E16D00CB100F063FB05F092
:1049300021FB2846FEF732FF009031680D660068C3
:10494000FFF786F96846FEF781FF03F009F903F0E7
:1049500083F82046F8BD00F04DFBFAE7AC020020DA
:104960007CB515460C4620B912480068006E002838
:104970001FD0FEF713FF2DB20090C58024B28480B3
:1049800003F06AF80098406980B1FEF707FF009ACB
:104990000190B2F908108180B2F90A20C28011B1E9
:1049A0000AB10480458001A8FEF750FF6846FEF773
:1049B0004DFF7CBDAC02002001490A4600F002B860
:1049C00001F0FFFF7FB515460C46060028D0FEF724
:1049D000E5FE40F6FF710190CC4203D1B0F90440EE
:1049E000B0F906500289611E1144ADF80840ADF8D7
:1049F0000C104189681E0844ADF80E00ADF80A504D
:104A000001A8FEF723FF02A806F028FC06E02A46CC
:104A10002146304600F048F906F0D4FB0028F6D1D4
:104A20007FBD00002DE9FF4FDFF8E8B083B01C46E2
:104A3000DBF80010DDE9106092464FF000084B7C77
:104A400042461299FFF7C6F8050060D028698068D1
:104A5000804703F0F9F981460AFB09F1C91DCF0827
:104A6000FEF7D2FEF10705D1C11700EB917080105F
:104A700000EB4000002C09DC1FB11838B0FBF7F048
:104A800000E000206442A04200DC0446F00707D1A9
:104A90000090DDE903012346524600F0C5FC804644
:104AA000002C03DC2846FFF7D1F830E004FB07F0C8
:104AB0001830F10702D0FEF78DFD01E0FEF78FFD03
:104AC00006001CD0FEF76AFE019005600399818004
:104AD0000499C180A0F808A04481C0F81480C0E9FE
:104AE000037901A8FEF7B2FE1298AE602861DBF8E8
:104AF0000000407CA861304607B0BDE8F08F284632
:104B0000FFF7A4F8B8F1000001D0FEF783FD002004
:104B1000F2E70000AC0200202DE9F74F8EB01446FA
:104B200089460E98FEF73AFE0990B0F908B0B0F940
:104B30000A600068006940680C9009A8FEF786FECC
:104B4000564D574F2868407C57F82000C1688A6A44
:104B5000082190470790182801D320200790286843
:104B6000407C57F820000069069003C80B904D4820
:104B7000814201D0012000E000200A90002000F0D6
:104B800014FD00287DD1286809EB0B01B0F90C2039
:104B9000891A491E002902DDABEB010500E05D46E4
:104BA000B0F90810494505DDA1EB090189446D1AEA
:104BB000089101E000210891002D6BDDB0F90E2075
:104BC000A119891A491E002902DDA6EB010800E09F
:104BD000B046B0F90A00A04204DD061B3444A8EB3D
:104BE000060800E00026B8F1000F53DD0898019098
:104BF0000DA95F46DDF830A00E980091FFF746FE44
:104C0000774300EB870101982B4601EB8002009966
:104C10004846CDE900A1214600F052FF009000284F
:104C200038D00A98E8B1DDE906322946009800F04C
:104C30006BFDB0B90698009FDA46D0F810C0BCF101
:104C4000000F05D004235A4639463846E04708E0AD
:104C50000B993868884701C7AAF101005FEA000A8A
:104C6000F6D100990020079ACDE9030105900120B3
:104C70000090CDE9010221460346641C2A464846BD
:104C800000E007E002F0C0FAA8F10100761C5FEA3C
:104C90000008ABD111B0BDE8F08F0000AC020020DD
:104CA000C40200204F770008F8B515460E460746A7
:104CB000FEF774FD009000681621C068426A00206B
:104CC000904704466846FEF7C1FD002C03D02A46F3
:104CD00031463846A047F8BDF8B516460F460500E0
:104CE00012D0FEF75BFD009044696846FEF7AEFD0A
:104CF0002846FFF7B9FD0346082800DD2CB13246EF
:104D0000394628460CF060FCF8BD32463946284644
:104D10000CF0FAFDF8BD000002480068407C00F08D
:104D200003B80000AC020020F8B51D49096809B1BC
:104D3000002200E002461B498D56012D2EDD184948
:104D4000143151F822305B1C41F82230012B25D15F
:104D5000A1F108030026103953F8224051F822101F
:104D600053F822707F1C43F82270AF4201D143F800
:104D7000226053F822708F42F2D03D46FEF7C4FF06
:104D8000009000280AD0C0682121426A68469047F6
:104D9000030003D02A46214600989847F8BD00003A
:104DA0002C040020E402002002480068407C00F04F
:104DB00003B80000AC02002038B51449096809B1F5
:104DC000002200E002461249895601291CDD0F49E4
:104DD000143151F822305B1E41F8223014D10839C9
:104DE00051F82240103141F82240FEF78DFF00902B
:104DF000002809D0C0682221426A68469047020014
:104E000002D021460098904738BD00002C040020B5
:104E1000E402002010B5002821D009B30AB3B1F98B
:104E20000040B2F900309C4200DA23460380B1F919
:104E30000240B2F902309C4200DA23464380B1F9C5
:104E40000440B2F904309C4200DD23468380B1F96E
:104E50000610B2F90620914200DC1146C18010BD57
:104E600011460A6802604968416010BD00280BD0F5
:104E700003880B440380838819448180418811444E
:104E80004180C1881144C1807047000070B50E4D4B
:104E90000446D5E90001884209D10C49884201D174
:104EA0003C3000E00C3807C884E8070006E090E8D2
:104EB0000E0084E80E000AF035FA2860207A0028F7
:104EC00000D0012070BD0000F002002018D20020A8
:104ED0000448D0E90010814201D101207047002030
:104EE00070470000F0020020054A10B50349116028
:104EF0000CF0D8F9BDE8104000F0F6B80DA4000899
:104F0000D402002070B5094C0020D4E900218A4267
:104F10000AD0D2E9005610460AF01CFA2060314649
:104F2000284605F0A7FD012070BD000050040020B8
:104F30002DE9FC41154DDDE908742D68B5F90860CF
:104F4000864200DD3046B5F90C60964200DA324602
:104F5000824219DBB5F90A608E4200DD3146B5F9AF
:104F60000E509D4200DA2B468B420DDB00E02C46B2
:104F7000E5682D6825B1042D02D02568002DF6D1F5
:104F8000CDE9007402F052FCBDE8FC81AC020020C7
:104F9000B0F90220B1F906309A4213DCB1F90220CF
:104FA000B0F906309A420DDCB0F90020B1F90430B6
:104FB0009A4207DCB1F90010B0F90400814201DC2B
:104FC00001207047002070470146024870220068A7
:104FD000FBF7F6B8AC020020002801D00BF0A2BE0F
:104FE00070470000024970220968FBF7E9B8000029
:104FF000AC02002010B502F0E5FC02F0B1FDBDE806
:10500000104004F091BE000070B5094D0446022C1A
:105010002868467C09D22046FEF776FE28B128682B
:105020004474FFF7E7FF03480460304670BD00009A
:10503000AC020020B403002002F0E4BC02F01ABD70
:105040000149886070470000A002002002F02ABDDC
:1050500003490968CA6900B1C86110467047000079
:10506000AC02002002F03ABD024909688A7E8876C7
:1050700010467047AC020020094A30B41080094A3B
:105080001180094A1268537C084A52F82330DA68C2
:10509000146A0A46A446014630BC18466047000020
:1050A000EC020020EE020020AC020020C40200202E
:1050B000024909680A7E087610467047AC02002053
:1050C00003490968B1F92C20888510467047000013
:1050D000AC02002003490968B1F92A20488510462E
:1050E00070470000AC02002002480068002800D091
:1050F000004770476004002002498A6802B988604E
:10510000FFF7F2BF500400202DE9FC410746984606
:1051100016460D461C20FEF762FA04002DD01B49EE
:10512000194808602046FEF739FB009015B9FFF7D3
:10513000BEF9054600980760C0E90465A0F80C8038
:105140006846FEF783FB20460AF03CFA104DA8683B
:1051500040B90120A86005F10C010E48086008461E
:1051600001F0B0F92046FEF719FB0190296839B12A
:1051700081602C6001A8FEF769FB2046BDE8FC8138
:1051800000212C608160F5E7B5510008D0020020B5
:10519000900600207DFC000810B5040009D00BF03B
:1051A000CBFA20460CF062F92046BDE81040FEF72D
:1051B00031BA10BD2DE9F041184C88B00025676860
:1051C00025E000BFFFF773F906466068FEF7E6FAD0
:1051D00001904169891B002915DC616802960491E0
:1051E0000169039146686660D0F8008001A8FEF767
:1051F0002DFB02A84146884766B160680125B84288
:1052000005D1002506E001A8FEF720FB02E060685A
:105210000028D7D108B02846BDE8F08190060020CC
:1052200038B50C4660B1FEF7B9FA0090808920428B
:1052300001D0012400E000246846FEF707FB00E0EF
:105240000124204638BD38B5040012D0FEF7A6FA76
:105250000090FFF72CF901460098826911444161E2
:105260006846FEF7F3FA20460CF000F920460AF0F3
:10527000A9F938BD38B50C46002806D0FEF78EFADD
:10528000009084616846FEF7E1FA38BD38B50546FE
:10529000002028600648046844B12046FEF77EFAE4
:1052A0000090006928606846FEF7D0FA204638BDB5
:1052B0009006002038B504004FF000000D4608604D
:1052C00011D02046FEF76AFA0090846844B168461F
:1052D000FEF7BCFA2046FEF761FA009000692860EC
:1052E0006846FEF7B3FA204638BD0000024901487F
:1052F000086070475C9D0F08B00200202DE9F04166
:10530000084E044605683068016828468847074605
:105310003068416828468847284420603846BDE800
:10532000F0810000B00200202DE9F0410C46064655
:105330000025064F05E03868416830468847064436
:105340000544641EF7D22846BDE8F081B002002073
:105350002DE9F0411E46069C1746884605463A460A
:10536000A8687F1C3346D0F804C041462846E04771
:10537000641EF4D1BDE8F08170B5B0F90040091B9E
:10538000B0F904408C422CDD00F11404B0F9025055
:105390000069521B02FB0040CA1800EBE104521ED8
:1053A000D010B0EBE10501F007034FF0FF0102F070
:1053B000070221FA03F0C2F1070201FA02F1CEB2AC
:1053C00021780FD001436D1E04F8011B002D05DD6F
:1053D000FF2229462046FAF713FF2C442078304359
:1053E000207070BD30400143217070BD10B5B0F920
:1053F0000030B0F90240C91A00F114030069121B11
:1054000002FB003000EBE10001F00703027880218D
:10541000D9400A43027010BDB0F906100269514329
:105420001430FAF7F4BE00002DE9F843804602F18B
:105430000F000011470003FB07F01C461546894684
:105440001430FEF7CCF8060013D0FEF7A7F9009051
:10545000A0F80080A0F802908580C4800649816091
:105460000121818107616846FEF7F0F93046BDE809
:10547000F8830020FBE70000B8EC0F0870B5B0F926
:105480000660B0F904400B6800F1140596421BDD7C
:105490000069A34202FB005000EBE30214DA641E31
:1054A000E010A0EBE30512F8010B03F00704A040A5
:1054B000C4B206E045B1083312F8014B23F00703EC
:1054C0006D1E002CF6D004E0002070BD6006040EB6
:1054D0005B1C2006FAD5FF2C07D0184602E06406B4
:1054E000240E401C6606FAD400E0D81DC4436407AD
:1054F00005D006E012F8014BFF2C09D108306D1ED3
:10550000F8D5C01A401C0B6070BD6206140E401C1A
:105510002206FAD4F5E738B50546FEF73FF90090C4
:105520008189491E0CB284816846FEF78FF9002CF0
:1055300002D12846FEF76EF838BD2DE9F041164637
:105540000F460546002432463946284600F0F8FF4B
:10555000054408B1641CF6E72046BDE8F081000070
:1055600010B54FF448410548FEF74CF88020FEF78F
:105570005FF9BDE810400248FFF762BDC007002098
:1055800004AA0F0803490A6810440A68821A002A0C
:10559000FBDC7047000100207047000001480068F4
:1055A000704700000001002070470EB508B102AA44
:1055B00000E00022002301A9684600F09BFD0EBD1B
:1055C000074910B50C7818B101200870801E03E05F
:1055D000002008706FF07F4001F000FE204610BDF3
:1055E000E602002010B5082A0EDC0346012A18D076
:1055F000022A56D0042A76D010F8042B03F8012B87
:10560000491EF9D1012010BD102A08DC4FEA000222
:1056100030F8043B22F8023B491EF9D1F2E70020A2
:1056200010BD10F8042BD207120E491E34D010F80A
:10563000044B491E04F0010442EA84122CD010F8F5
:10564000044B491E04F0010442EA441224D010F82D
:10565000044B491E04F0010442EA04121CD010F865
:10566000044B491E04F0010442EAC40214D010F8AD
:10567000044B491E04F0010442EA84020CD010F8E5
:10568000044B491E04F0010442EA440204D010F81D
:10569000044B04F00104224303F8012B0029C0D17C
:1056A000B0E710F8042B9207120E491E15D010F81F
:1056B000044B491E04F0030442EA04120DD010F812
:1056C000044B491E04F0030442EA840205D010F89A
:1056D000044B04F003042243491E03F8012B002964
:1056E000DFD18FE7FFE710F8042B1207120E491ED7
:1056F00005D010F8044B04F00F042243491E03F8B0
:10570000012B0029EFD17DE738B50024009400F08B
:105710001BF838BD0A4810B5816900290ED1012156
:105720008161FFF71DFF02F02DFA054905481C3184
:105730000860BDE81040084600F0C4BE10BD00007F
:10574000A0020020E1FB00082DE9F0410D4606997A
:10575000044601B901461F68082A09DC0E46012AE1
:105760001AD0022A5BD0042A7DD0082A13D18DE0FA
:10577000102A07DCD3F810C00E46BCF1000F04D08D
:10578000022389E00020BDE8F08101CCB84726F86B
:10579000020B6D1EF9D189E001CCB847C0074FEA72
:1057A00010686D1E36D001CCB84748EA801000F072
:1057B000FF086D1E2ED001CCB84748EA401000F01B
:1057C000FF086D1E26D001CCB84748EA001000F053
:1057D000FF086D1E1ED001CCB84748EAC00000F09B
:1057E000FF086D1E16D001CCB84748EA800000F0D3
:1057F000FF086D1E0ED001CCB84748EA400000F00B
:10580000FF086D1E06D001CCB84740EA080000F042
:10581000FF086D1E06F8018B002DBDD146E001CCBE
:10582000B84780074FEA10686D1E16D001CCB84704
:1058300048EA001000F0FF086D1E0ED001CCB847FA
:1058400048EA800000F0FF086D1E06D001CCB84782
:1058500040EA080000F0FF086D1E06F8018B002DDD
:10586000DDD123E0FFE701CCB84700074FEA10681D
:105870006D1E06D001CCB84740EA080000F0FF08D2
:105880006D1E06F8018B002DEDD10FE0D3F810C08E
:10589000BCF1000F04D001232A462046E04705E072
:1058A00001CCB84706F8010B6D1EF9D101206AE75B
:1058B0007CB5064628480D46006868B1002005F012
:1058C000CDFC06E06A462946304606F0E1FD05F0CB
:1058D00079FC0028F6D17CBD106800901F4C506800
:1058E00001902268BDF8000032F84C1F0844ADF862
:1058F0000000BDF8020091880844ADF80200BDF830
:10590000040011880844ADF80400BDF80600918831
:105910000844ADF80600684605F0A0FC0EE000BFA4
:105920002068BDF800106A464184BDF802108184E9
:105930002946304606F0ACFD05F044FC0028EFD1C6
:10594000206830F8221F428D891A01804188C28D5B
:10595000891A41807CBD0000E8020020AC020020D2
:105960002DE9FF4F85B09A4690460D46FEF780FD23
:105970004FF00009DDF814B006464C4625B1286802
:1059800000906868019002E06846FEF74DFD18F04F
:105990000C0F02D05546002713E0BDF902402DE060
:1059A00029467F1C059800F01DFC01466D1A0598DC
:1059B000FFF7BAFC05990844059005A800F056FCCD
:1059C00008B9002DECD108F00C00042804D00828F8
:1059D00002D00C2812D105E0BDF9060007FB160421
:1059E000641C0BE0BDF90600BDF90210401A07FB6C
:1059F0001600401C00EBD07001EB60045546CDF85A
:105A000014B043E02946059800F0ECFB0746014638
:105A1000ED1B059800F0BCFB18F003010ED0012926
:105A200039D002290DD1BDF90410BDF90020891A21
:105A3000091A01EBD17102EB610101E0BDF900101F
:105A40008946174A401E484412683946A2F82290F7
:105A50009484ADF80C00A019401EADF80890ADF884
:105A60000E00ADF80A4002AA0598FFF721FF39465B
:105A70000598FFF759FC059908440590FEF7F8FCD6
:105A8000044405A800F0F2FB002801D1002DB9D193
:105A900009B0BDE8F08FBDF90410091A491CCFE721
:105AA000AC02002049B1002802DAA0EB610001E05D
:105AB00000EB610090FBF1F07047002070470000A0
:105AC0002DE9FF4F8DB00020DDF86CA01646009048
:105AD0001D4604460246CAF8000008AB03A902A806
